:100000000C94A3000C94CB000C94CB000C94CB006C
:100010000C94CB000C94CB000C94CB000C94CB0034
:100020000C94CB000C94CB000C94CB000C94CB0024
:100030000C94CB000C94CB000C94CB000C94CB0014
:100040000C946A020C94CB000C94F1030C943404CD
:100050000C94CB000C94CB000C94CB000C94CB00F4
:100060000C94CB000C94CB0007634236B79BD8A707
:100070001A39685618AEBAAB558C1D3CB7CC5763CD
:10008000BD6DEDFD753EF6177231BF000000803F7B
:1000900008000000BE922449123EABAAAA2ABECD97
:1000A000CCCC4C3E00000080BEABAAAAAA3E000009
:1000B0000000BF000000803F000000000008417801
:1000C000D3BB4387D1133D190E3CC3BD4282AD2B38
:1000D0003E68EC8276BED98FE1A93E4C80EFFFBE30
:1000E00001C4FF7F3F000000000000000007000285
:1000F00001000003040600000000000000000102EF
:1001000004081020408001020408102001020408A5
:100110001020040404040404040402020202020283
:10012000030303030303000000002300260029004B
:1001300000000000250028002B0000000000240023
:1001400027002A00F70411241FBECFEFD8E0DEBF3E
:10015000CDBF11E0A0E0B1E0ECE4F2E102C0059017
:100160000D92A632B107D9F722E0A6E2B1E001C0B4
:100170001D92A830B207E1F710E0C3EAD0E004C056
:100180002197FE010E941E09C23AD107C9F70E94B9
:1001900032050C9424090C94000040E855E260E01C
:1001A00070E08EE591E00E946F0460E082E00C94C4
:1001B0000502CF92DF92EF92FF92CF93DF93EC0193
:1001C0006091000170910101072E000C880B990BC2
:1001D0000E947E066B017C01BE01DD0F880B990B2E
:1001E0000E947E0620E030E040E85AE30E940A07C1
:1001F000A70196010E94770720E030E040E854E430
:100200000E940A070E944606CB01DF91CF91FF9022
:10021000EF90DF90CF900895CF92DF92EF92FF9210
:10022000CF93DF93C0E0D4E0C61BD70B11F4C1E03D
:10023000D0E09C01261B370BB90137FF03C0719535
:1002400061957109072E000C880B990B0E947E06A0
:100250006B017C01BE01DD0F880B990B0E947E06AD
:100260009B01AC01C701B6010E94D40520E030E03B
:1002700040E854E40E940A070E944606CB01DF9141
:10028000CF91FF90EF90DF90CF9008955F926F92A3
:100290007F928F929F92AF92BF92CF92DF92EF9216
:1002A000FF920F931F93CF93DF9386E00E943A0350
:1002B000909333018093320187E00E943A03909338
:1002C00035018093340188E00E943A03909337010E
:1002D0008093360189E00E943A039093390180931C
:1002E000380182E00E944102909327018093260109
:1002F000019779F00AE311E088E2C82E81E0D82E58
:1003000092E0E92E91E0F92ECCE4D1E0552453940B
:1003100011C0C8E2D1E00AE311E0899199910E94ED
:10032000D900F801819391938F01F1E0CA33DF077F
:10033000A1F7E0CFF801A190B1908F01F601819073
:1003400091906F01C4010E94D900B5010E940C0177
:10035000F701619071907F01681679061CF488811D
:10036000882331F1C4010E94D900B5010E940C011B
:10037000861597051CF4888181111CC02196F1E037
:100380000C341F07B9F661E070E080E090E0DF9187
:10039000CF911F910F91FF90EF90DF90CF90BF9082
:1003A000AF909F908F907F906F905F900C94D90248
:1003B0005882D8CF1882E2CF833081F028F4813080
:1003C00099F08230A1F008958630A9F08730B9F015
:1003D0008430D1F4809180008F7D03C080918000B3
:1003E0008F7780938000089584B58F7702C084B59D
:1003F0008F7D84BD08958091B0008F7703C0809178
:10040000B0008F7D8093B0000895CF93DF9390E08C
:10041000FC01E250FF4F2491FC01EE5EFE4F8491FF
:10042000882361F190E0880F991FFC01E65CFE4F84
:10043000C591D491FC01E05DFE4FA591B49161118D
:1004400009C09FB7F8948881209582238883EC9116
:100450002E230BC0623061F49FB7F8943881822F4D
:10046000809583238883EC912E2B2C939FBF06C00D
:100470008FB7F894E8812E2B28838FBFDF91CF911F
:100480000895CF93DF93282F30E0F901E651FF4F15
:100490008491F901E250FF4FD491F901EE5EFE4FD5
:1004A000C491CC2391F081110E94DC01EC2FF0E08B
:1004B000EE0FFF1FEA5DFE4FA591B491EC91ED2385
:1004C00081E090E021F480E002C080E090E0DF91E4
:1004D000CF9108951F920F920FB60F9211242F9370
:1004E0003F938F939F93AF93BF93809156019091C9
:1004F0005701A0915801B09159013091550123E065
:10050000230F2D3720F40196A11DB11D05C026E84B
:10051000230F0296A11DB11D209355018093560112
:1005200090935701A0935801B093590180915A01BB
:1005300090915B01A0915C01B0915D010196A11DBC
:10054000B11D80935A0190935B01A0935C01B0931D
:100550005D01BF91AF919F918F913F912F910F902E
:100560000FBE0F901F9018953FB7F89480915A01D5
:1005700090915B01A0915C01B0915D0126B5A89BB3
:1005800005C02F3F19F00196A11DB11D3FBFBA2F25
:10059000A92F982F8827820F911DA11DB11DBC0185
:1005A000CD0142E0660F771F881F991F4A95D1F74A
:1005B0000895CF92DF92EF92FF92CF93DF936B017A
:1005C0007C010E94B402EB01C114D104E104F104E6
:1005D00079F00E94B4026C1B7D0B683E7340A0F35F
:1005E00081E0C81AD108E108F108C851DC4FECCF0E
:1005F000DF91CF91FF90EF90DF90CF9008957894A6
:1006000084B5826084BD84B5816084BD85B5826017
:1006100085BD85B5816085BDEEE6F0E080818160B5
:100620008083E1E8F0E010828081826080838081B5
:1006300081608083E0E8F0E0808181608083E1EB8D
:10064000F0E0808184608083E0EBF0E08081816075
:100650008083EAE7F0E0808184608083808182602B
:100660008083808181608083808180688083109214
:10067000C10008958E3008F08E50877020911401CB
:1006800090E4299F90011124822B80937C0080911B
:100690007A00806480937A0080917A0086FDFCCF96
:1006A000809178002091790090E0922B0895FC01D0
:1006B00024853585F901E05CFF4F80819181329678
:1006C00020813181821B930B8F7399270895DC0160
:1006D0001C96ED91FC911D97DF01A05CBF4F2D9101
:1006E0003C91119712968D919C911197281739077B
:1006F00039F08D919C91E80FF91F808190E0089569
:100700008FEF9FEF0895FC01A485B585FD01E05CA6
:10071000FF4F2081318132968081918128173907DE
:1007200079F080819181A80FB91F8C91208131814E
:100730002F5F3F4F2F7333273183208390E008953D
:100740008FEF9FEF0895FC0181A1882329F0A489F0
:10075000B5898C9186FFFBCF11A208950F931F934B
:10076000CF93DF93FC01A685B7858D01005C1F4FF9
:10077000E8018881998101968F739927AD014E5BBD
:100780005F4FEA012881398182179307D1F3E8018D
:1007900028813981A20FB31F6C93A685B785A05C11
:1007A000BF4F11969C938E93A689B7892C9181E0B7
:1007B00090E0078C02C0880F991F0A94E2F7822B01
:1007C0008C9381E081A30488F589E02D8081806489
:1007D000808381E090E0DF91CF911F910F91089588
:1007E00008951F920F920FB60F9211242F934F93DB
:1007F0005F938F939F93EF93FF938091C00082FD4F
:100800001CC02091C60080910402909105020196BF
:100810008F7399274091060250910702841795071C
:1008200071F0E0910402F0910502EC53FE4F208339
:10083000909305028093040202C08091C600FF914C
:10084000EF919F918F915F914F912F910F900FBEDC
:100850000F901F9018958EE591E00E945703892B09
:1008600011F00C94F00308951F920F920FB60F929F
:1008700011242F933F938F939F93EF93FF93209196
:10088000C0013091C1018091C2019091C30128172C
:10089000390731F48091C1008F7D8093C10014C06D
:1008A000E091C201F091C301E058FE4F2081809198
:1008B000C2019091C30101968F7399279093C30150
:1008C0008093C2012093C600FF91EF919F918F9179
:1008D0003F912F910F900FBE0F901F901895CF92C0
:1008E000DF92EF92FF920F931F93CF93DF93EC0170
:1008F0006A017B014115514E6105710509F1EC89D1
:10090000FD8981E090E008A002C0880F991F0A9439
:10091000E2F7808360E079E08DE390E0A701960143
:100920000E94FC0889019A0101501109210931092D
:100930003695279517950795980101151041A8F050
:10094000EC89FD89108260E874E88EE190E0A701EF
:1009500096010E94FC08DA01C9010197A109B109B9
:10096000B695A795979587959C01E889F989308375
:10097000EA89FB89208319A2EE89FF89408181E001
:1009800090E09C010C8C02C0220F331F0A94E2F706
:10099000242B2083EE89FF8940819C010D8C02C0AD
:1009A000220F331F0A94E2F7242B2083EE89FF895C
:1009B00040819C010E8C02C0220F331F0A94E2F783
:1009C000242B2083EE89FF8920810F8C02C0880FA1
:1009D000991F0A94E2F7809582238083DF91CF915B
:1009E0001F910F91FF90EF90DF90CF900895EEE56B
:1009F000F1E01382128288EE93E0A0E0B0E08483FD
:100A00009583A683B78389E191E09183808384EC09
:100A100091E09587848780E891E09787868785ECC9
:100A200090E0918B808B84EC90E0938B828B80ECB8
:100A300090E0958B848B81EC90E0978B868B82EC99
:100A400090E0918F808F86EC90E0938F828F84E08E
:100A5000848F83E0858F87E0868F85E0878F81E0B4
:100A600080A308950E94FF020E94CD00CBE2D4E053
:100A70000E9446012097E1F30E942B04F9CFCF9208
:100A8000DF92EF92FF920F931F93CF93DF936C014E
:100A9000EB017B01E40EF51E00E010E0CE15DF0552
:100AA00061F06991D601ED91FC910190F081E02D0A
:100AB000C6010995080F191FF1CFC801DF91CF9129
:100AC0001F910F91FF90EF90DF90CF9008955058B5
:100AD000BB27AA270E947F050C94D0060E94C2065D
:100AE00038F00E94C90620F039F49F3F19F426F42B
:100AF0000C94BF060EF4E095E7FB0C94B906E92FC1
:100B00000E94E10658F3BA17620773078407950736
:100B100020F079F4A6F50C9403070EF4E0950B2E63
:100B2000BA2FA02D0B01B90190010C01CA01A0013F
:100B30001124FF27591B99F0593F50F4503E68F19A
:100B40001A16F040A22F232F342F4427585FF3CFDB
:100B5000469537952795A795F0405395C9F77EF4AC
:100B60001F16BA0B620B730B840BBAF09150A1F0F5
:100B7000FF0FBB1F661F771F881FC2F70EC0BA0F7B
:100B8000621F731F841F48F4879577956795B79503
:100B9000F7959E3F08F0B0CF9395880F08F09927FE
:100BA000EE0F9795879508950E94E8050C94D0065E
:100BB0000E94C90658F00E94C20640F029F45F3F27
:100BC00029F00C94B90651110C9404070C94BF063B
:100BD0000E94E10668F39923B1F3552391F3951B25
:100BE000550BBB27AA2762177307840738F09F5F4E
:100BF0005F4F220F331F441FAA1FA9F335D00E2EBB
:100C00003AF0E0E832D091505040E695001CCAF727
:100C10002BD0FE2F29D0660F771F881FBB1F2617EA
:100C200037074807AB07B0E809F0BB0B802DBF01C1
:100C3000FF2793585F4F3AF09E3F510578F00C9490
:100C4000B9060C9404075F3FE4F3983ED4F386950D
:100C500077956795B795F7959F5FC9F7880F911DB1
:100C60009695879597F90895E1E0660F771F881F9D
:100C7000BB1F621773078407BA0720F0621B730B50
:100C8000840BBA0BEE1F88F7E09508950E944D067D
:100C90006894B1110C94040708950E94E90688F045
:100CA0009F5798F0B92F9927B751B0F0E1F0660F30
:100CB000771F881F991F1AF0BA95C9F714C0B13071
:100CC00091F00E940307B1E008950C940307672F89
:100CD000782F8827B85F39F0B93FCCF386957795A0
:100CE0006795B395D9F73EF4909580957095619589
:100CF0007F4F8F4F9F4F0895E89409C097FB3EF4B4
:100D000090958095709561957F4F8F4F9F4F992358
:100D1000A9F0F92F96E9BB279395F69587957795D6
:100D20006795B795F111F8CFFAF4BB0F11F460FF96
:100D30001BC06F5F7F4F8F4F9F4F16C0882311F0EE
:100D400096E911C0772321F09EE8872F762F05C002
:100D5000662371F096E8862F70E060E02AF09A959D
:100D6000660F771F881FDAF7880F9695879597F992
:100D7000089597F99F6780E870E060E008959FEF1D
:100D800080EC089500240A94161617061806090622
:100D9000089500240A9412161306140605060895F1
:100DA000092E0394000C11F4882352F0BB0F40F479
:100DB000BF2B11F460FF04C06F5F7F4F8F4F9F4FB9
:100DC000089557FD9058440F551F59F05F3F71F03B
:100DD0004795880F97FB991F61F09F3F79F08795A2
:100DE0000895121613061406551FF2CF4695F1DF2B
:100DF00008C0161617061806991FF1CF86957105BB
:100E0000610508940895E894BB2766277727CB01EE
:100E100097F908950E941D070C94D0060E94C206FF
:100E200038F00E94C90620F0952311F00C94B90601
:100E30000C94BF0611240C9404070E94E10670F381
:100E4000959FC1F3950F50E0551F629FF001729F6F
:100E5000BB27F00DB11D639FAA27F00DB11DAA1F7E
:100E6000649F6627B00DA11D661F829F2227B00DCB
:100E7000A11D621F739FB00DA11D621F839FA00D56
:100E8000611D221F749F3327A00D611D231F849FA6
:100E9000600D211D822F762F6A2F11249F575040FD
:100EA0009AF0F1F088234AF0EE0FFF1FBB1F661F78
:100EB000771F881F91505040A9F79E3F510580F041
:100EC0000C94B9060C9404075F3FE4F3983ED4F306
:100ED000869577956795B795F795E7959F5FC1F7E5
:100EE000FE2B880F911D9695879597F90895FA0125
:100EF000EE0FFF1F309621053105A1F16115710537
:100F000061F48038BFE39B0749F16894903881050C
:100F100061F08038BFEF9B0741F099234AF5FF3F0E
:100F2000E1053105210519F1E8940894E795D90107
:100F3000AA2329F4AB2FBE2FF85FD0F310C0FF5FB8
:100F400070F4A695E0F7F73950F019F0FF3A38F44D
:100F50009F779F930DD00F9007FC9058089546F00F
:100F60000C94BF0660E070E080E89FE308954FE7CF
:100F70009F775F934F933F932F930E9472082F9117
:100F80003F914F915F910E940A070C94CF0729F47B
:100F900016F00C94B9060C9403070C94BF060E943B
:100FA000E906A8F39638A0F707F80F92E8942BE328
:100FB0003AEA48EB5FE70E9420070F920F920F92E8
:100FC0004DB75EB70F920E94BA08E8E6F0E00E94C3
:100FD00001084F915F91EF91FF91E595EE1FFF1F83
:100FE00049F0FE57E0684427EE0F441FFA95E1F7F9
:100FF0004195550B0E9434080F9007FE0C94280869
:101000000895DF93CF931F930F93FF92EF92DF9298
:101010007B018C01689406C0DA2EEF010E941D0747
:10102000FE01E894A5912591359145915591A6F33E
:10103000EF010E947F05FE019701A801DA9469F78C
:10104000DF90EF90FF900F911F91CF91DF91089566
:101050009B01AC0160E070E080E89FE30C94D40554
:101060000C94B9060C94EE080E94E906D8F3992373
:10107000C9F3940F511DA3F39150504094F059F0CF
:10108000882332F0660F771F881F91505040C1F7B8
:101090009E3F51052CF7880F911D9695879597F9DE
:1010A00008955F3FACF0983E9CF0BB2786957795FE
:1010B0006795B79508F4B1609395C1F7BB0F58F7E2
:1010C00011F460FFE8CF6F5F7F4F8F4F9F4FE3CFEB
:1010D0000C94040716F00C94EE080C94BF06689468
:1010E0000C94B9060E94E906A8F39923C1F3AEF364
:1010F000DF93CF931F930F93FF92C92FDD27882390
:101100002AF02197660F771F881FDAF720E030E07A
:1011100040E85FEB9FE3883920F0803E38F021966D
:101120008F770E946805E0E9F0E004C00E9468053E
:10113000EDEBF0E00E9401088B01BE01EC01FB2EFB
:101140006F5771097595771F880B990B0E947E0662
:1011500028E132E741E35FE30E941D07AF2D9801CC
:10116000AE01FF900F911F91CF91DF910E947F05FB
:101170000C94D006FA01DC01AA0FBB1F9B01AC0145
:10118000BF5728F4222733274427507820C0B7516F
:1011900090F4AB2F0024469537952795011CA39515
:1011A000D2F3002071F0220F331F441FB395DAF3FE
:1011B0000ED00C94670561307105A0E88A07B94626
:1011C00030F49B01AC01662777278827907830960A
:1011D00021F0208331834283538308959F3F31F070
:1011E000915020F4879577956795B795880F911D55
:1011F0009695879597F90895A1E21A2EAA1BBB1B15
:10120000FD010DC0AA1FBB1FEE1FFF1FA217B307D2
:10121000E407F50720F0A21BB30BE40BF50B661FE8
:10122000771F881F991F1A9469F7609570958095AC
:1012300090959B01AC01BD01CF010895EE0FFF1FFA
:0C1240000590F491E02D0994F894FFCF84
:10124C000A00900190019001900190019001900191
:10125C0090015E010100000000AE033F05570383BF
:06126C00036703A3030069
:00000001FF
